:020000041000EA
:1000000000B5324B212058609868022188439860DF
:10001000D860186158612E4B002199600221596106
:100020000121F02299502B49196001219960352056
:1000300000F044F80222904214D00621196600F024
:1000400034F8196E01211966002018661A6600F04E
:100050002CF8196E196E196E052000F02FF8012189
:100060000842F9D1002199601B49196000215960AB
:100070001A491B48016001219960EB211966A021F2
:10008000196600F012F800219960164914480160C1
:100090000121996001BC002800D000471248134993
:1000A000086003C880F30888084703B5996A0420EC
:1000B0000142FBD001200142F8D103BD02B5186610
:1000C0001866FFF7F2FF186E186E02BD00000240BE
:1000D000000000180000070000035F00212200005C
:1000E000F4000018222000A00001001008ED00E03C
:1000F00000000000000000000000000074B24E7A12
:1001000000200420F7010010C3010010C5010010F9
:10011000C1010010C1010010C1010010C101001097
:10012000C1010010C1010010C1010010C701001081
:10013000C1010010C1010010C9010010CB01001065
:10014000CD010010CD010010CD010010CD01001037
:10015000CD010010CD010010CD010010CD01001027
:10016000CD010010CD010010CD010010CD01001017
:10017000CD010010CD010010CD010010CD01001007
:10018000CD010010CD010010CD010010CD010010F7
:10019000CD010010CD010010CD010010CD010010E7
:1001A000CD010010CD010010CD010010CD010010D7
:1001B000CD010010CD010010CD010010CD010010C7
:1001C00000BE00BE00BE00BE00BE00BEEFF3058054
:1001D000103800BEF2EB8871C0890010E889001069
:1001E0003402001090A31AE700201F49086006C8D7
:1001F00081F3088810471D48006800282FD10DA4FE
:100200000ECC002902D000F012F8F9E71849194A7B
:10021000002000E001C19142FCD1174988471749ED
:1002200088471749884700BEFDE701C901C29A42C5
:10023000FBD37047E8890010C00000209002002026
:10024000B88B00100000042000000420B88B0010C0
:10025000001004200010042000000000704709482E
:1002600005F04AFF0047000008ED00E0000000D064
:10027000A0020020C061022065480010211C00106F
:10028000554900105756000006005250ABB360535A
:10029000F888001006005250861C030208890010DE
:1002A000060052505422A29D14890010050052509D
:1002B000DE65F468B88B0010F8B5C04606480749FB
:1002C000091A8B10C90FC91810B5491003D0044B77
:1002D000002B00D0984710BD900200209002002013
:1002E00000000000054B10B5002B03D00449054861
:1002F00000E000BFFFF7E2FF10BDC04600000000B5
:1003000048070020B87F0010F8B50421DE465746A4
:100310004E464546A423DF4AE0B5DF4FD150DF4BC0
:1003200039001800984602F021FEDD4ADD4B11002D
:10033000180091469B4602F0C3FE8F21DA4CC90596
:100340002568281C06F0E7FF07F00EF843461B68F7
:10035000181A801106F0E6FFDE21890506F0DBFFA2
:10036000291C06F0C1FF8F21D04D20602C68C905E3
:10037000061C201C06F0CFFF06F0F6FF43465B6824
:10038000181A801106F0CEFFDE21890506F0C3FFA2
:10039000211C06F0A9FF8F212860C54DC9052B68D7
:1003A000041C181C984606F0B6FF06F0DDFF5B46FD
:1003B0001B68181A801106F0B5FFDE21890506F0CA
:1003C000AAFF414606F090FF8F212860B94DC9056C
:1003D0002B688246181C984606F09DFF06F0C4FF65
:1003E0005B465B68181A801106F09CFFDE218905C8
:1003F00006F091FF414606F077FF80231B06286038
:100400008046E01806F0E8FF802304000D001B067C
:10041000F01806F0E1FF22002B0006F0EFF90022B1
:10042000A54B06F03AF906F0B9F90023A34AC11723
:1004300006F03AFF0904000C0843B968A04B0C0011
:10044000C9170D001860A60E8B013343A2011219C3
:100450006B4111001B040A0C1A439A4B1A609A4B09
:100460009B461B68D2181600D2171700B30D9502D1
:100470001D43B402A41BBD41E30E9C4661466B01C3
:100480000B436201921BBB4192185B4111000600B5
:10049000C01707001B040A0C1A438501B30E1D4345
:1004A000B401A4197D412B04240C1C435B46121992
:1004B0001A6080231B064344180006F08DFF80233A
:1004C00004000D001B065344180006F085FF2200AF
:1004D0002B0006F093F90022774B06F0DEF806F0C9
:1004E0005DF90023754AC11706F0DEFE774B09045B
:1004F000000C084318604B4699680C00C9170D00A2
:10050000A60E8B013343A20112196B4111001B048B
:100510000A0C1A436E4B1A606E4B9C461B68D2182D
:100520001400D2171500A30D97021F43A602361B15
:10053000AF41F10E7B010B437201121BAB419218CC
:100540005B4111001B040A0C1A43C31704001D0071
:10055000860E990131438001001969410B04000C9A
:100560001843634612181A60D022120653680121FC
:100570005B0731D453681B0919422DD10022564B19
:100580001A70564B1A70D0221206536801219B052F
:1005900039D45368DB0A194235D10022504B1A7006
:1005A000504B1A70504B9B79002B03D04F4A136865
:1005B000013313604E4B9B79002B03D04D4A1368D7
:1005C000013313604C4A136801331360F0BCBB461F
:1005D000B246A946A046F8BD0122D0211000090666
:1005E0004B689B0818401A4231D14B681B091A42CC
:1005F0002DD0394B01211A70D022384B12061870B9
:1006000053689B05C5D50122D021100009064B680F
:100610005B0A18401A4203D14B68DB0A1A4234D1F4
:10062000D0221206536801219B0505D553680A00A4
:10063000DB0A1A40194261D0D02212065368012108
:100640009B05AFD55368DB0A1942A6D1AAE7D02291
:100650001206536801215B070CD4D022120653689E
:1006600001215B0700D48EE753681B09194200D0B3
:1006700084E788E753680A001B091A401942ECD145
:10068000154B1A70154B19707DE7154B1A70154BE9
:10069000187087E70000054068060020D00500209C
:1006A00074060020DC0500205806002060060020AB
:1006B0005C060020640600200000F040B84B3900C2
:1006C000E80500208006002008060020EC05002038
:1006D000840600200C060020B4610220B6610220CE
:1006E000B5610220B761022060070020D008002019
:1006F00074070020D408002080610220024B1A7089
:10070000024B19704EE7C046B5610220B761022066
:10071000F0B5DE4657464E464546E0B50368040050
:1007200085B0002B1AD09F46B24B0360B24B9A6A39
:10073000B24B1B689A4230D3B14B984600229B5E65
:10074000B04A02949146002B01D101F064F848466A
:100750009AB29B00052AFDD8C1588F468C215A2099
:100760000125A94AFF305180283913705060138148
:10077000D1601574A54A13810023D160A449137474
:100780008C469D4B15705060F4359B6AFF35558043
:100790009A4A63441360974B2360012005B0F0BC74
:1007A000BB46B246A946A046F0BD8146042002F0F1
:1007B000E9FA0021022002F0EFFA3221AF2002F024
:1007C000D7FA944D944B2E0007CB07C61B78280010
:1007D000337002F0EBFA0021072002F0DDFA03206B
:1007E00002F0D0FA6E21322002F0C2FA2A002C0068
:1007F00037008A4B03CB03C21988280011809B78ED
:10080000937002F0D3FA022002F0BCFA8C21462049
:1008100002F0AEFA824B07CB07C407CB07C71A68B2
:1008200028003A601B793B7102F0C0FAA0214620F3
:1008300002F09EFA2A007B4B13CB13C213CB13C2D8
:100840001A6828003A609A88BA809B79BB7102F0D6
:10085000ADFA032002F096FAD221322002F088FA93
:100860002A00714B13CB13C203CB03C2280002F042
:100870009DFA022002F086FAF021462002F078FA72
:100880002A006A4B13CB13C213CB13C21A68280079
:100890003A609A88BA809B79BB7102F087FA82210C
:1008A0004620490002F064FA2900614B15CB15C1BE
:1008B00015CB15C115CB15C11A6828000A609B8895
:1008C0008B8002F073FA8C214620490002F050FA26
:1008D0002A00584B13CB13C213CB13C21B8828001A
:1008E0003B8002F063FA96214620490002F040FA6C
:1008F0002A00514B13CB13C207CB07C643CB43C7C8
:10090000280002F053FAD0231B065B68DB0501D4F4
:1009100001F09FF8434600229B5E14E781460520C4
:1009200002F030FA0021012002F036FA9621BE20B2
:1009300002F01EFA4148424B020022CB22C21B7831
:10094000137002F033FAC821EB2002F011FA3D4B8C
:100950003D481A6802609B88838002F027FA0220D3
:1009600002F010FAAF219620490002F001FA374850
:10097000374B020062CB62C262CB62C21B6813605B
:1009800002F014FAD0231B065B68DB05C2D43149A0
:10099000194B8C469B6A304A6344029C13602F4B70
:1009A0002360FAE68146022002F0ECF900210720DC
:1009B00002F0F2F9AF21B420490002F0D9F9284839
:1009C000284B020062CB62C262CB62C21B781370FA
:1009D00002F0ECF9D0231B065B68DB059AD40C49C6
:1009E000054B8C469B6A204A6344029C13601F4B54
:1009F0002360D2E628070010004005406809002067
:100A00009801002024810010600700207407002056
:100A1000A0860100E0060020288000103880001029
:100A200044800010648000108480001098800010C2
:100A3000B8800010E480001000810010D808002069
:100A4000F87F001004800010000900202809002011
:100A50000C80001040420F0070090020F00C0010C4
:100A60009C080020DC7F001074090020500C00104E
:100A7000A022D2210723920049008146002001F0E4
:100A8000F3FA012002F07EF9A74F0021387802F036
:100A900083F92B21F72002F06BF9A44BA44E9A4660
:100AA000A44D1900EA68300005F0F0FA300002F0B9
:100AB0007DF9A14C0021207802F06EF92B219F488E
:100AC00002F056F99E4B51469A469E4E1800F26827
:100AD00005F0DCFA504602F069F9039B642B01D162
:100AE00000F031FC0A2B04D1EB68092B01DC00F08B
:100AF000C1FC5B46642B01D100F016FC0A2B04D12B
:100B0000F368092B01DC00F0ABFC8F4B02229B5EEB
:100B10001A004B3A1E2A00D9F0E18C4B586806F0B7
:100B200001FCDE21890506F0F6FB06F055FC884A3B
:100B3000884B05F003FE002800D12FE1FA21864AF8
:100B4000012310684900884201DB00231360AB7168
:100B50000023EB7124E100210720029C02F01CF924
:100B6000C821C82002F004F9032002F00BF97B48E9
:100B70007B4B020062CB62C2198811809B78937014
:100B800002F014F97749784B8C469B6A774A6344A4
:100B90001360774B236000E6754B0360724B9A6AD3
:100BA000724B1B689A4200D2F7E5724B98460323BA
:100BB000424613800022704B1A700323C0E56F4B2E
:100BC0000360694B9A6A6E4B1B689A42EDD2E4E56A
:100BD0006C4B0360644B9A6A6B4B1B689A4200D261
:100BE000DBE5644B00219846022342461380002334
:100BF000A0220093E1330020FF33920001F0C8FEF1
:100C0000494DCA222B782A21282000930A2301F07B
:100C1000BFFE2B78CE222821262000930E2301F040
:100C200063FBAF20444DCA222B782A210093400059
:100C30000A2301F0ADFEAE202B78CE2200932821AE
:100C40000E23400001F050FB434600229B5E77E5F7
:100C50004E4B0360444B9A6A4D4B1B689A4200D23C
:100C60009BE58C215A2000220125324BFF30598010
:100C700028391A7058601A81D960324B1D70F435CA
:100C8000FF355D8058601A81D9600092F023A02260
:100C9000002100205B00920001F07AFE224DCA2262
:100CA0002B782A21282000930A2301F071FE2B784B
:100CB000CE222821262000930E2301F015FBAF2021
:100CC0001D4DCA222B782A21009340000A2301F0EF
:100CD0005FFEAE202B78CE22009328210E23400009
:100CE00001F002FB234B984602234246138027E57E
:100CF000284B03601C4B9A6A274B1B689A4200D210
:100D00004BE51C4B002198460523424613800023E7
:100D1000A0220093E133FF339200002001F038FE5F
:100D2000434600229B5E0BE59B010020D87F00100C
:100D300088060020600700209A0100202D02000094
:100D4000B00600207407002008060020D00500200F
:100D50007B14AE47E17A843FD008002084610220F2
:100D6000C87F001040420F0000400540600900208D
:100D7000980B001098010020B8610220BE0B0010F3
:100D800064090020D00B00106C090020500C0010EA
:100D900074090020F00C0010700900200023EB8083
:100DA0005A4BA9881B789A460223E85E584B1B7859
:100DB000002B00D19BE25346002B13D1582811DDA4
:100DC0003C39543800B20093A822873309B201F0AD
:100DD000DFFD68882B7C053800B26880002B01D0CD
:100DE00053462B74A9880F221E393B7809B201F0B3
:100DF000B9FBA9883B780F390222A85E09B22D22DF
:100E000001F0E2F82B7C002B00D083E0A9880223BC
:100E1000E85E0B00353302001BB29A463B780F3A6E
:100E20001E3112B209B20093534601F06FF9A9883E
:100E3000688835310F383B78162209B200B201F0CC
:100E4000C3F8A9880223E85E0B0035331BB29A462B
:100E50003B78821D1E3112B209B20093534601F055
:100E600055F9A98868880B004B3302001BB29A46DB
:100E70003B780F323531063012B209B200B200931E
:100E8000534601F043F90423E95E0223E85E0B00B8
:100E90001E3302001BB29A463B780F32009312B207
:100EA000534601F033F9EB79002B00D06EE2AB79B9
:100EB000002B00D16EE20423E95E0223E85ECB1C26
:100EC00002001BB29A463B781E3A009312B2534678
:100ED00001F01CF9A9886888033154383C223B781A
:100EE00009B200B201F0C0F868880422A95E1E3879
:100EF00006223B7800B201F067F8A5E00F331E2B05
:100F000000D94BE780235B00EB8049E7B661022004
:100F1000B4610220A9880223E85E0B0035331BB2BE
:100F20009A463B78821F1E3112B209B20093534693
:100F300001F0ECF8A98868880B004B3302001BB263
:100F40009A463B780F3A3531063812B209B200B2F0
:100F50000093534601F0DAF8A9880223E85E0B00FB
:100F6000353302001BB29A463B780F321E3112B263
:100F700009B20093534601F0C9F8A9886888353151
:100F80000F303B78162209B200B201F01DF804239D
:100F9000E95E0223E85E0B001E3302001BB29A4694
:100FA0003B780F3A009312B2534601F0AFF8EB7959
:100FB000002B00D12DE2AB79002B01D100F09EFC7B
:100FC0000423E95E0223E85E0B000C3302001BB22F
:100FD0009A463B78093212B20093534601F096F8D4
:100FE00068880422AB5E02001E32190012B29246DB
:100FF0003A780C31093009B200B20092524601F041
:1010000085F8A98868880B00273B02001BB29A4626
:101010003B7845320631183012B209B200B2009363
:10102000534601F073F86888A98802008B1C1BB234
:101030009A462332053912B209B21D303B7800B20C
:101040000093534601F062F8C74B02229B5E1A00E0
:101050004B3A1E2A00D9ABE2C44B586806F062F93D
:10106000DE21890506F057F906F0B6F9C04AC14BF2
:1010700005F064FB002800D1F7E2FA21BE4A012303
:1010800010684900884201DB00231360B37100231C
:10109000F371BA4BB1881B789A460223F05EB84BC5
:1010A0001B78002B00D1C3E25346002B03D15828F4
:1010B00001DD00F0A3FCB1880F221E39237809B2AC
:1010C00001F050FAB18823780F390222B05E09B2DC
:1010D0002D2200F079FF337C002B00D0D4E1B188C1
:1010E0000223F05E0B00353302001BB29A462378D0
:1010F0000F3A1E3112B209B20093534601F006F8BE
:10110000B188708835310F382378162209B200B2C1
:1011100000F05AFFB1880223F05E0B0035331BB29A
:101120009A462378821D1E3112B209B200935346AB
:1011300000F0ECFFB18870880B004B3302001BB24B
:101140009A4623780F323531063012B209B200B216
:101150000093534600F0DAFF0423F15E0223F05EB1
:101160000B001E3302001BB29A4623780F32009305
:1011700012B2534600F0CAFFF379002B00D0B2E25E
:10118000B379002B01D000F0F1FB0423F15E0223C0
:10119000F05E0B000C3302001BB29A462378093A2A
:1011A00012B20093534600F0B1FF70880422B35E80
:1011B00002001E3A190012B2924622780C31093808
:1011C00009B200B20092524600F0A0FFB1887088C8
:1011D0000B00273B02001BB29A462378453A0631A2
:1011E000183812B209B200B20093534600F08EFFD5
:1011F0007088B18802008B1C1BB29A46233A0539CD
:1012000012B209B21D38237800B20093534600F0A1
:101210007DFFEB792A7A9A4204D1AA79697A9142C0
:1012200000D1DBE200239A46A98868883C3954380B
:10123000A82209B200B20093873301F0A9FB5346FC
:10124000B18870883C39543809B200B20093A822A2
:10125000873301F09DFB0223E85E0223F15E8842A2
:1012600000DBACE12A7C337C002A00D076E2002B44
:1012700001D0FFF74FFBB2799446002A01D100F06C
:10128000D3FB091A1E39362901D900F0CDFBEA68D3
:10129000501EE86040000392293000B20093022201
:1012A00008232B2101F074FBEB79AA79F1798A46A6
:1012B000B1798C462B725346337263467372EB6876
:1012C0006A72002B00DA77E2F368002B01DBFFF78C
:1012D00021FB42460023AF2013802378CA220093CB
:1012E0002A210A23400000F0FFFFFFF713FB5246BC
:1012F000002A00D176E5234A904200DD72E53C39B0
:1013000054387F3A00B2009309B28723FF3A01F0C4
:101310003FFB68882B7C053000B26880002B00D032
:1013200060E501332B745DE5F368632B01DDFFF7A6
:10133000ECFB0023062200932B211348083301F015
:1013400027FBFFF7E2FBEB68632B01DDFFF7D1FB27
:1013500000230420009306222B210833FF3001F0E4
:1013600017FBFFF7C6FBC0460C060020DC0500207B
:101370007B14AE47E17A843FD4080020B761022095
:10138000B56102202602000039020000AB79002B73
:1013900000D17BE20423E95E0223E85E0B000C33FC
:1013A00002001BB29A463B78093A12B200935346A8
:1013B00000F0ACFE68880422AB5E02001E3A190001
:1013C00012B292463A780C31093809B200B2009252
:1013D000524600F09BFEA98868880B00273B02005C
:1013E0001BB29A463B78453A0631183812B209B218
:1013F00000B20093534600F089FE6888A988020075
:101400008B1C1BB2233A05399A4612B209B21D3819
:1014100014E6AB79002B00D1D2E50423E95E022368
:10142000E85ECB1C02001BB29A463B781E3200934A
:1014300012B2534600F06AFEA9886888033118305A
:101440003C223B7809B200B200F00EFE688804220C
:10145000A95E1E3006223B7800B200F0B5FDF3E530
:101460000023062200932B21DA48083301F090FA7A
:10147000FFF74BFB0023062200932B21FD200833AE
:1014800001F086FAFFF735FBB1880223F05E0B000E
:1014900035331BB29A462378821F1E3112B209B22D
:1014A0000093534600F032FEB18870880B004B3336
:1014B00002001BB29A4623780F3A3531063812B231
:1014C00009B200B20093534600F020FEB188022317
:1014D000F05E0B00353302001BB29A4623780F32C0
:1014E0001E3112B209B20093534600F00FFEB188CC
:1014F000708835310F302378162209B200B200F01F
:1015000063FD0423F15E0223F05E0B001E33020034
:101510001BB29A4623780F3A009312B2534600F05A
:10152000F5FDF379002B00D0A2E0B379002B00D0B9
:1015300040E20423F15E0223F05E0B000C33020054
:101540001BB29A462378093212B20093534600F038
:10155000DDFD70880422B35E02001E32190012B253
:10156000924622780C31093009B200B200925246FC
:1015700000F0CCFDB18870880B00273B02001BB245
:101580009A46237845320631183012B209B200B2B9
:101590000093534600F0BAFD7088B18802008B1C9E
:1015A0001BB2233205399A4612B209B21D302AE61F
:1015B0000F331E2B59D880235B00F38069E58842E6
:1015C00000DC71E62A7C337C002A00D045E1AA7950
:1015D000002B00D12AE2002A14D0F279002A11D17E
:1015E000411A1E3954290DD8F3682B21581EF0607A
:1015F00040006030FF309B460092082300B2023268
:1016000001F0C6F9B3799C466246EB79002A0BD00B
:10161000002B00D017E202216A5E0220315E521ACE
:101620001E3A542A00D832E6F179AA798A4641E670
:101630005246002A00D13EE5674A904200DD3AE575
:101640003C3954387F3A00B2009309B28723FF3AFD
:1016500001F09EF97088337C053000B27080002B59
:1016600000D028E50133337425E50023F38010E52D
:10167000B379002B00D05CE70423F15E0223F05E17
:101680000B00173302001BB29A4623780B320093EB
:1016900012B2534600F03AFDB18870880B000F3348
:1016A00002001BB29A462378183217310B30009390
:1016B00012B2534609B200B200F028FDB18870881A
:1016C0002539183023783C2209B200B200F07CFCA6
:1016D000B18870880C3113300A22237809B200B225
:1016E00000F0C2FC95E5B379002B00D04DE5042352
:1016F000F15E0223F05E0B00173302001BB29A4624
:1017000023780B3A009312B2534600F0FFFCB188E5
:1017100070880B000F3302001BB29A462378183AE8
:1017200017310B38009312B2534609B200B200F0E1
:10173000EDFCB18870882539183823783C2209B22D
:1017400000B200F041FCB18870880C311D380A22CB
:10175000237809B200B200F087FC5AE5AA79002B81
:1017600049D1002A14D0F379002B11D1091A1E395E
:1017700054290DD8F2682B21501EF06040006030D3
:10178000FF3093460093022200B2083301F000F9C3
:10179000B3799C466246EB79002A00D144E7002BDE
:1017A00000D050E10221725E0220295E521A1E3AD8
:1017B000542A00D86BE537E74246012313803B7873
:1017C000CA2200932A210A23282000F08DFDFFF76A
:1017D000A1F8C0463302000026020000F1798A46D3
:1017E000317A514500D01DE5717A8C46B179614559
:1017F00000D017E55EE5002A42D0091A1E393629C5
:101800003ED8F368581EF06040006030FF309B46C1
:1018100000B2534642E500210720029C01F0BCFAC9
:10182000C821C82001F0A4FA032001F0ABFA9E48B9
:101830009E4B020062CB62C2198811809B78937024
:1018400001F0B4FA9A499B4B8C469B6A9A4A6344CE
:1018500013609A4B2360FEF7A0FFF2799246B279AB
:101860009446002B09D0002A07D05346002B00D104
:10187000FBE0D446EB79AA791CE5EB79AA7919E566
:10188000F179EB798A46B1798C4613E50423E95E58
:101890000223E85E0B00173302001BB29A463B7826
:1018A0000B3A009312B2534600F030FCA9886888C6
:1018B0000B000F3302001BB29A463B78183A1731DF
:1018C0000B38009312B2534609B200B200F01EFC6E
:1018D000A9886888253918383B783C2209B200B2BB
:1018E00000F072FBA98868880C311D380A223B7809
:1018F00009B200B200F0B8FBFFF7A6FB0423E95ED3
:101900000223E85E0B00173302001BB29A463B78B5
:101910000B32009312B2534600F0F8FBA988688896
:101920000B000F3302001BB29A463B781832173176
:101930000B30009312B2534609B200B200F0E6FB3E
:10194000A9886888253918303B783C2209B200B252
:1019500000F03AFBA98868880C3113300A223B78E2
:1019600009B200B200F080FBFFF76EFB0423F15ECA
:101970000223F05ECB1C02001BB29A4623781E3A6B
:10198000009312B2534600F0C1FBB1887088033156
:1019900054383C22237809B200B200F065FB70880D
:1019A0000422B15E1E380622237800B200F00CFB40
:1019B000FFF72FFC0423F15E0223F05ECB1C020034
:1019C0001BB29A4623781E32009312B2534600F09F
:1019D0009DFBB1887088033118303C22237809B20E
:1019E00000B200F041FB70880422B15E1E30062276
:1019F000237800B200F0E8FAFFF70BFC3C395438CA
:101A000000B20093A822873309B200F0C1FF7088AA
:101A1000337C053800B27080002B01D1FFF74BFBFF
:101A200053463374FFF747FBEB79FDE5EB79002A6A
:101A300000D13BE4002B27D0F2799246B27994464C
:101A40001A00FFF737FCF1799C468A46AA79FFF71E
:101A500031FC1B49174B8C469B6A1A4A6344029C13
:101A60001360194B2360FEF798FE411A1E39362980
:101A700000D902E7EB68581EE86040002930039364
:101A800000B25346FFF70AFC401A1E38362801D927
:101A9000FFF70CFCF268501EF06040006030934687
:101AA000FF30FFF7FAFBC04684610220B87F0010C8
:101AB00040420F000040054064090020BE0B0010AA
:101AC000A08601006C090020D00B0010F0B5C646BE
:101AD000134B00B51B68002B21D1124B1B68002B48
:101AE0001AD19846104D114E114F0FE000223C00C4
:101AF00053009B189B00FB1820009B6898472A689E
:101B0000336801322A600C349A42F1DB43462B6081
:101B10003368002BEADCFEE780BCB846F0BD9F4688
:101B200098070020A0070020D8060020A407002066
:101B3000AC070020F0B5C646134B00B51B68002B60
:101B400021D1124B1B68002B1AD19846104D114E13
:101B5000114F0FE000223C0053009B189B00FB1824
:101B600020009B6898472A68336801322A600C3449
:101B70009A42F1DB43462B603368002BEADCFEE738
:101B800080BCB846F0BD9F469C070020A0070020FF
:101B9000DC060020A807002024080020D0231B0614
:101BA0001B6870B5012B16D016490B68092B05DD93
:101BB0000022154B1A60FFF789FF70BD5A001348C9
:101BC000D2189200124D84186360A560002401337E
:101BD00084500B60ECE70F490B68092B0BDC5A00B3
:101BE0000D48D21892000A4D84186360A560002445
:101BF000013384500B600022084B1A60FFF79AFFF4
:101C0000DBE7C046A407002098070020AC070020AF
:101C100011070010A8070020240800209C070020BE
:101C2000F8B505F07BFDD02400F0CCF8022001F0DF
:101C30001BFB0423240600220121A362022001F0E1
:101C400001FB042001F010FB102300220121A362FC
:101C5000042001F0F7FA092001F006FB80239B0025
:101C600000220121A362092001F0ECFA0B2001F00F
:101C7000FBFA80231B0100220121A3620B2001F04B
:101C8000E1FA082001F0F0FA802301255B00A3624D
:101C900000220121082001F0D5FA3A493A4806F01D
:101CA00061F803210C2001F0B5FA03210D2001F0A9
:101CB000B1FA002201210C2001F0C4FA0022012116
:101CC0000D2001F0BFFA2F49304806F04BF80321F0
:101CD0000E2001F09FFA03210F2001F09BFA002251
:101CE00001210E2001F0AEFA002201210F2001F0A7
:101CF000A9FA01F0C3F82649264801F037F9264928
:101D0000264801F0DDF92A00254F264E3B680420C5
:101D10009A401300A422B350234A2449136001F0CF
:101D200041FB0121042001F017FB396820488B009A
:101D30005B189B009A191061C820400050601D4A32
:101D40008020944663441A684001120C0343120435
:101D50001A608D40A023F55005F00AFE164805F0E4
:101D60005BFE2368012B06D00022144B1A60FFF79C
:101D7000ADFE0020F8BD0022114B1A60FFF7DAFE1D
:101D8000F7E7C046400D0300600200205802002023
:101D900068060020D005002074060020DC05002025
:101DA000CC08002000000540A820054009030010D1
:101DB000881300000C0005409D1B001098070020B0
:101DC0009C070020F0B5D6464F464646C0B56D4943
:101DD0008AB06D4805F04CFE6C4906006A4805F073
:101DE00047FE6B490500684805F042FE002380224B
:101DF00099460593F82352025B0202920393C02393
:101E000004001B03102202A906A89846049305F0BB
:101E100061FB3100731C08310A03DB01134306A97F
:101E2000102202A8079305F055FB5A4B0127059392
:101E3000A0230621DB0210209A46029301F0EAF962
:101E40000123102200215048009705F089FE32003E
:101E500000214D4802AB05F0D7FE29006B1C0D3167
:101E60000A03DB0113434C4A062113408022D205AA
:101E70001343079343460893484B11200993534655
:101E8000069301F0C7F90123112201213E48009772
:101E900005F066FE2A0001213B4806AB05F0B4FEC2
:101EA0004B4680220593F82352025B020292039371
:101EB0004346102202A906A8049305F00BFB22005A
:101EC000A31C08321203DB01134306A9102202A847
:101ED000079305F0FFFA324B06211220059301F01B
:101EE00099F90621132001F095F90621142001F03B
:101EF00091F90323122202212348009705F030FEB6
:101F00002200022102AB204805F07EFEA023254AD4
:101F1000DB051A60244A25495A60962292029A608B
:101F2000234A1A61234A116080215360224B976033
:101F30001361154A490253680B42FCD180211F4BA3
:101F400089021361104A53680B42FCD1E0238021BF
:101F5000FF3353610C4AC90253680B42FCD1402342
:101F6000FF339361164B174A01211A60A022862382
:101F7000D205DB00D1500AB0E0BCBA46B146A84653
:101F8000F0BDC04678860010000020505486001036
:101F90003886001000020004FFFFFF9F2046004427
:101FA0005202300C80090020180020509C010020B3
:101FB000110801004000005009801F008F0200003E
:101FC0000020205007070000F0B5DE464546574682
:101FD0004E46E0B5551804009B46A94238DADA00AF
:101FE000C043D3B2A022C0179C469200204090422A
:101FF00034DA0723F027994631339846184C7F008E
:1020000009E046465246B24366460131324309B2C0
:10201000E254A9421CDA0B1CB94201DBE023FF3376
:102020001BB2DA43D21713409A00D218D201121809
:102030005310E65CB24601261642E2D14E465246A5
:10204000B2435E460131324309B2E254A942E2DBB7
:10205000F0BCBB46B246A946A046F0BD0148C8E761
:10206000800900207F020000F0B5DE464546574655
:102070004E46E0B515189B46A84238DAF0240A1CF3
:102080006400A14239DA12B2D1435B46C9170A4053
:102090009400A418DA00D3B29C460723A0279946DF
:1020A00031339846174AE401BF0009E046465146DD
:1020B000B14366460130314300B2D154A84216DA2A
:1020C000C143C9170140B94200DB0F4909194B1040
:1020D000D65CB24601260E42E8D14E465146B14387
:1020E0005E460130314300B2D154A842E8DBF0BC77
:1020F000BB46B246A946A046F0BDE023FF331A1CFA
:10210000C1E7C046800900207F020000F0B55746B5
:102110004E464546DE46E0B55D1A87B0EE1710AC78
:102120002478AD197540161A0394F41736191F0058
:102130008A4691468046AC466640B54206DD1700A9
:1021400082461A000800B4464B464146904211DDD3
:102150005446E41BE717E4197C40871AA446BCB236
:102160003FB2A046FC0FE419641099426EDD0121D4
:1021700002910EE0171ABCB23FB2A046FC0FE41960
:102180006410994253DB0B00110002000800534910
:1021900002910399C900C9B20491614689B28C4683
:1021A000B54256DDF02149008B46A0318A46012117
:1021B00089464146059101006046494D8C46019093
:1021C00016E007218E4303990E430199EE55611ADB
:1021D0008EB20CB2090407D502998846059943448A
:1021E000884646441BB234B2013212B2944526DB13
:1021F000161C5A4502DBE021FF310E1C36B2F143BA
:10220000C9170E40B1008919DE43F6171E4036B2D9
:10221000C901564500DB334E484689194F10EE5D23
:102220000842CED038218E4304990E43CDE70B00EF
:10223000110002000800012102918242A9DD07B0CD
:10224000F0BCBB46B246A946A046F0BD2349029168
:10225000F3E7F02149008B46A0318A4601218946E7
:1022600041460591010060461D4D8C46019016E0E7
:1022700038218E4304990E430199EE55611A8EB2AE
:102280000CB2090407D5029988460599434488464B
:1022900046441BB234B2013212B26245CFDC1E1C7E
:1022A0005B4502DBE021FF310E1C36B2F143C9175A
:1022B0000E40B1008919D643F617164036B2C9014F
:1022C000564500DB074E484689194F10EE5D08421F
:1022D000CED107218E4303990E43CDE7FFFF0000C7
:1022E000800900207F020000F0B557464E46454663
:1022F000DE46E0B587B01C00161810AB05001F784D
:102300000392B04200DB84E0F0220B1C52009142A9
:1023100000DB11E11BB2DA43D21713409A00D31845
:10232000DB019C46FB00DBB20193A0239B00994696
:102330000123984606339B463133059428006446B2
:102340009A46AC46854A02970491C343DB17034083
:102350004B4500DB824B47461B195D10515D1F4208
:102360000DD053469943019B0130194300B251559A
:10237000B042EADB65460499059C029F0CE05B468F
:102380009943029B0130194300B25155B042DCDB46
:1023900065461F000499059CF023601E4018804686
:1023A00000B25B00984202DBE023FF3398464346CD
:1023B0001BB2D843C01703409800C318DB019C46EA
:1023C000A0239B0099460123984606339B46313350
:1023D0000594280064469A46AC4602970491C3438C
:1023E000DB1703404B4500DB5D4B47461B195D1077
:1023F000515D1F4200D1A2E053469943019B013039
:10240000194300B25155B042E9DB65460499059C79
:10241000029F6618B14200DB84E0FB00DBB2984605
:10242000EB43A022DB172B409C469200934200DB3B
:102430007FE0F0235B009A46E03BFF3B9946063382
:102440009B4643460800454A019302950491041CAB
:10245000504502DBE023FF331C1C24B2E343494612
:10246000DB171C40A3001B19DB0163445D10545DA6
:1024700019420CD038239C43019B01301C4300B20D
:1024800054558642E3DC9846029D04990BE05B4676
:1024900001309C433C4300B25455B042D7DB019B12
:1024A000029D98460499039B013B5B1918B2C043F7
:1024B000C0171840A02300B29B00984200DB2848B8
:1024C0000123F0259B460633994631339C466D0027
:1024D000019709E063469C4343461C435346013140
:1024E00009B2D454B1421DDA0C1CA94202DBE0232C
:1024F000FF331C1C24B2E3435F46DB171C40A300E0
:102500001B19DB011B185C10A246145D1F42E1D1B0
:102510004B469C43019B01311C43534609B2D454A2
:10252000B142E1DB07B0F0BCBB46B246A946A046CB
:10253000F0BD0B4B9C467CE7E023FF33EAE65B46AD
:102540009943029B0130194300B25155B04200DA61
:1025500045E765461F000499059C5AE7800900205D
:102560007F020000F0B54E464546DE465746E0B5D0
:1025700087B095B203920122521B12B20492EA0371
:10258000521B520012B2C64305928AB29446A02250
:10259000F61792000640964200DBDD4E6246F027B9
:1025A000AC18221C24B27F00BC4201DBE022FF32C7
:1025B00012B2D443E41722409400A418E401A419F1
:1025C000621090464746D34AD75DE40700D4DBE16A
:1025D0003824A743DC002743FFB24446175564461E
:1025E000F027641BA14624B27F00BC4202DBE0243A
:1025F000FF34A1464C4627B2FC43E4172740BC00F9
:10260000E419E401A4196610975DE40700D4B6E16B
:102610003824A743DC003C43E4B29455F02680B252
:102620000C1C7600B14202DBE021FF310C1C21B210
:10263000CC43E41721402E188C00641831B2C943F2
:10264000C9173140A02609B2E401B600B14200DB4F
:10265000AF4909194E10975DC90700D48AE13821A6
:102660008F43D9003943C9B29155461B31B2C94392
:10267000C9173140A02609B2B600B14200DBA44917
:1026800009194E10945DC90700D46EE138218C43BE
:10269000D9002143C9B291550399002900DC30E1EA
:1026A000D900C9B2884600210191614601279C46A4
:1026B0000091D5E04B463824A34344462343994632
:1026C00053464C46D454831B9A461BB2DB43DB175C
:1026D000994653464C4623401BB29946A0239B0083
:1026E000994501DB8A4B9946029C4C44A2466310F3
:1026F0009B46D45C53461F4200D125E138239C43BE
:1027000043461C435B46D454009B5B1B1C1C1BB202
:102710009A46F0235B009A4502DBE023FF331C1C42
:1027200024B2E343DB171C40A3009A465444E4015F
:1027300009194B109B46D35C0F4200D1F1E0190000
:1027400038239943434619435B464C44D1546310A4
:102750009946D15C274200D1F1E0382399434346A2
:1027600019434B46D154009B9C19F023211C24B2E1
:102770005B009C4202DBE023FF33191C09B2CC430F
:10278000E41721408C006418E3010293431919B245
:10279000C943C9171940A02309B29B00994200DB25
:1027A0005B49029BCB189B465B109A46D35C9946CB
:1027B0005B461F4200D1CCE04B463824A34344463D
:1027C0002343994653464C46D454431B1DB2ED4314
:1027D000ED171D40A0232DB29B009D4200DB4C4D08
:1027E000029B9946A9444B465B109A46D45C4B46E3
:1027F0001F4200D1B4E038239C4343461C43534658
:10280000D454009B9E1BF023341C36B25B009E42C6
:1028100002DBE023FF331C1C24B2E643F6173440EE
:10282000A6003419E40161184B109946D65C0F429A
:1028300000D171E038239E4343461E434B46641942
:10284000D6546510515D274252D0382399434346F0
:1028500019435155039B01998B4252DD6B469D896B
:10286000049B99B2002B09DB6C1E23B2A5B2059C18
:102870000393023423B26118059389B2019C013499
:10288000A6B223B274000134091901930BB2049368
:10289000009B5C19F023211C24B25B009C4202DBEC
:1028A000E023FF33191C09B2CC43E41721408C000C
:1028B0006418E3010293831919B2C943C917194077
:1028C000A02309B29B00994200DB1149029B5B18CF
:1028D0009B465B109A46D35C99465B461F4200D0EC
:1028E000E8E64B460724A343644623439946E7E6BC
:1028F00007239943634619435155039B01998B4222
:10290000ACDC07B0F0BCBB46B246A946A046F0BD61
:102910007F0200008009002007239E4363461E4378
:102920008CE7190007239943634619435B464C44DF
:10293000D15463109946D15C274200D00DE707239C
:102940009943634619430CE707239C4363461C43A2
:10295000D8E64B460724A34364462343994631E710
:1029600007239C4363461C4349E707218C4321000E
:10297000194390E607218F433900194374E6072471
:10298000A7433C001C4348E60724A7431F4324E613
:10299000F0B557464E46DE464546E0B585B01F00C9
:1029A0000EAB1B781218994603910300904245DA4A
:1029B0008C4608004946C900C9B267448846B842F7
:1029C0003CDAF02149008C46A939FF398A46313971
:1029D0008B464146009111001A004B46224D01934F
:1029E00016B2F643A023F617164036B29B009E425D
:1029F00000DB1E4E012389460398029202B2011C9D
:102A0000624502DBE022FF32111C09B2CA43D21731
:102A100011408A005218D20192195410295D1342B4
:102A200013D15A469143019A0130114329558742E7
:102A3000E4D1029A494601324A45D1D105B0F0BCF1
:102A4000BB46B246A946A046F0BD52469143009A05
:102A5000013011432955B842D0D1029A494601327A
:102A60004A45BDD1EAE7C046800900207F02000048
:102A7000F0B54E464546DE465746E0B595B0984619
:102A80001EAB1E781FAB1C78A02303960F949B00EF
:102A9000984200DBB4E0A03B994200DBB0E0A446E2
:102AA000630063445B001B18002B00DCA8E0E3001C
:102AB0005B18002B00DCA3E093009B18F200D2B25D
:102AC00004924246D200D2B202928AB29446A54AF9
:102AD00084B29B18139338239A46313B9B46434656
:102AE00000200193634605000E9411941293052D66
:102AF00000D135E1139B5C5D6B46129F38229B5ED3
:102B00000F9E9C4608933B0008339BB20793119B92
:102B10003200581903B2DB433900DB17624403402B
:102B2000099310950592E30700D470E0012E00D1BF
:102B3000C4E0089B05983AB283424EDAB018844646
:102B400082424ADAA0250C9111001A00AD00864895
:102B500006950A94A03D0B970D9617B2FF43FF17F9
:102B60001740069B3FB29F4200DB804F66460C0039
:102B7000012391468C4608E05A469143019A01345C
:102B80001143009A8154A6421CD022B2211CAA42B1
:102B900002DBE022FF32111C09B2CA43D2171140F6
:102BA0008A005218D201D21951100091415C13428F
:102BB000E2D052469143029A01341143009A815463
:102BC000A642E2D14A46059B01326146B446934291
:102BD000C3D10A9C0B9F0C990D9E0131079BBF1915
:102BE00089B26408BFB299429DD10F9B0E9F9C464B
:102BF000109D6744BBB201350E93062D00D076E7D9
:102C000015B0F0BCBB46B246A946A046F0BD039B3A
:102C1000019A9342E1D0012E73D0089B05983AB2F5
:102C20008342DADAB01884468242D6DAA0250C91C3
:102C300011001A00AD004C4806950A94A03D0B9770
:102C40000D9617B2FF43FF171740069B3FB29F42F6
:102C500000DB464F66460C0001238946944608E097
:102C60005A469143039A01341143009A8154A64273
:102C70001CD022B2211CAA4202DBE022FF32111C2E
:102C800009B2CA43D21711408A005218D201D21990
:102C900051100091415C1342E2D052469143049A94
:102CA00001341143009A8154A642E2D16246059B49
:102CB00001324946B4469A42C3D18AE7F02208B2AB
:102CC0000B1C5200904201DBE023FF331AB2D343C6
:102CD000DB171A4093009B186A46A0202425525FF8
:102CE000DB018000824200DB204A9B181E485D10F9
:102CF000425DDB0728D553469A43029B1A4342554F
:102D00006BE7F02208B20B1C5200904201DBE0237B
:102D1000FF331AB2D343DB171A4093009B186A465D
:102D2000A0202425525FDB018000824200DB0F4A95
:102D30009B180D485D10425DDB070BD553469A4347
:102D4000049B1A43425548E75B469A43019B1A434A
:102D5000425542E75B469A43039B1A4342553CE780
:102D60000024C9E63C810010800900207F02000099
:102D7000024B1880024B19807047C046AC6102209C
:102D8000AE610220034A031C002800D10123DBB2FC
:102D900013807047B0610220024B1870024B19700B
:102DA0007047C046BA610220B9610220F0B5CE4634
:102DB000474680B50278040083B0002A22D0294B10
:102DC000294D9946294E0DE00D2A08D02888092A58
:102DD0001DD19F239B00984201D204302880227885
:102DE000002A0FD001340A2AEED1214B1F4A1B883A
:102DF0001188DB005B18138000221B4B1A8022789D
:102E0000002AEFD103B0C0BCB946B046F0BD4B4676
:102E10000027F15F164F1B78B8463F7800B2019744
:102E2000144F3F780097FFF723FE43461A882988FE
:102E30005300D3185B005B180F499BB209782B80B5
:102E40000029CCD0A020800084469100511A49006E
:102E500061448B42C3DD3388D200D2180023328014
:102E60002B80BCE7BA610220AC610220AE61022077
:102E7000B0610220B9610220BC610220F0B56B2371
:102E8000002489B0354E02AF3B803A006821300003
:102E90000094693B04F090FF314D3A000223682111
:102EA0002800009404F088FF2E4B03AF3B803A00CB
:102EB000022368213000009404F07EFF3A000223D0
:102EC00068212800009404F077FF1B2304AF3B80A7
:102ED0003A00682130000094193B04F06DFF3A007D
:102EE000022368212800009404F066FF1C2305AF2C
:102EF0003B803A006821300000941A3B04F05CFFEC
:102F00003A00022368212800009404F055FF164B74
:102F100006AF3B803A00022368213000009404F0A1
:102F20004BFF3A00022368212800009404F044FF7C
:102F30009C2307AF5B003B80373B3A0068213000A1
:102F40000094FF3B04F038FF02233A006821280078
:102F5000009404F031FF09B0F0BDC04660020020CB
:102F6000580200201907000037100000F0B5D646BF
:102F70004F464646C0B586B06A463B23D3730F2200
:102F80004E4E3A3B07008A4600936A44682130005F
:102F9000994604F011FF002304AC984622000093E8
:102FA00068213000063304F06FFF22786378120244
:102FB00013431BB29B003B60A278E37812021343D9
:102FC0001BB29B007B6022796379120213431BB210
:102FD0009B00BB606A464323D3734B460F2200938A
:102FE0006A446821300004F0E7FE43462200009363
:102FF00068213000063304F047FF2278637812021C
:1030000013431BB21E00DB171F00F20E59011143C0
:103010007001801BB941830F9C4665468B002B4392
:10302000820092197B419904900B08439604030493
:10303000320C1A4353461A60A278E3781202134303
:103040001BB21E00DB171F00F20E59011143700165
:10305000801BB941830F9C4665468B002B43820041
:1030600092197B419904900B084396040304320C97
:103070001A4353465A6022796379120213431BB2F2
:103080001E00DB171F00F20E590111437001801B57
:10309000B941840F8B002343820092197B4199042C
:1030A000900B940408430304220C1A4353469A607D
:1030B00006B0E0BCBA46B146A846F0BD60020020AA
:1030C000F0B5D6464F464646C0B586B06A463B2365
:1030D000D3730F224E4E3A3B07008A4600936A4450
:1030E00068213000994604F067FE002304AC98463E
:1030F0002200009368213000063304F0C5FE2278D8
:103100006378120213431BB29B003B60A278E37802
:10311000120213431BB29B007B6022796379120277
:1031200013431BB29B00BB606A464323D3734B46D9
:103130000F2200936A446821300004F03DFE4346AC
:103140002200009368213000063304F09DFE2278AF
:103150006378120213431BB21E00DB171F00F20E2E
:10316000590111437001801BB941830F9C4665468C
:103170008B002B43820092197B419904900B0843EA
:1031800096040304320C1A4353461A60A278E3787B
:10319000120213431BB21E00DB171F00F20E59016F
:1031A00011437001801BB941830F9C4665468B001B
:1031B0002B43820092197B419904900B084396049B
:1031C0000304320C1A4353465A602279637912027F
:1031D00013431BB21E00DB171F00F20E59011143EF
:1031E0007001801BB941840F8B0023438200921928
:1031F0007B419904900B940408430304220C1A4366
:1032000053469A6006B0E0BCBA46B146A846F0BD47
:1032100058020020094A10B59446402483006344B4
:103220001A68C00062408034144080225201134367
:103230001C60034B9C466044416010BD04C00140CB
:1032400000400140074B80009C4660440368C90071
:1032500092000A435A400C231A4080235B01034327
:103260001A60704704C001400123D0228340120637
:1032700093629361094A40219446830063441A682B
:10328000C0004A408031114080225201134319602E
:10329000034B9C46052360444360704704C00140D3
:1032A00000400140024B18688007C00F7047C046BD
:1032B00000C00640EFF3108072B6034A1368002B7B
:1032C000FCD0BFF35F8F70472C0100D0BFF35F8F3E
:1032D0000022024B1A6080F3108870472C0100D046
:1032E00070B5EFF3108C72B60D4D2B68002BFCD02F
:1032F000BFF35F8F0724CB08C618C05C01230C40C6
:10330000A3401C000440034207D118433070BFF3B0
:103310005F8F2C608CF3108870BD100001F01EFBD5
:103320002C0100D00021044B044ABFF35F8F02C37D
:103330009342FAD17047C046000100D0800100D00E
:10334000044A1078431CDBB2172B00D910231370EA
:103350007047C046A001002001238340002904D00B
:10336000034A1360034A13607047034A1360FBE784
:1033700080E200E000E100E080E100E00122824024
:10338000034B1B6813405A1E9341D8B27047C04686
:1033900000E100E0024B10309B688000C05870478D
:1033A00000ED00E070B50D00EFF3108672B60F4A25
:1033B0001368002BFCD0BFF35F8F0D4B10309B6860
:1033C00084001B590B4A934203D09D4201D001F067
:1033D000DDFA074B9B681D51BFF35F8FBFF35F8F13
:1033E0000022024B1A6086F3108870BD240100D0C1
:1033F00000ED00E0CD010010F0B5DE4657464E4628
:103400004546E0B50C0083B0EFF3108872B65D4A14
:103410001368002BFCD0BFF35F8F5B4B5B499A684E
:10342000030010339F00D5598D4239D0A5424AD0B0
:10343000574EAA1B2F2A33D801229246824091462A
:103440004846544A1268104001904846524A10605B
:10345000BFF35F8FEFF305829346002A35D0934286
:1034600001D001F093FA2A0053469A4390688442AF
:1034700008D175E04B005B189B00F3189868A042D8
:1034800034D01A00062151560029F3DA844253D071
:10349000019B002B26D04A46404B1A603D4B1A60D8
:1034A000394B9B68DD51BFF35F8FBFF35F8F002205
:1034B000344B1A6088F3108803B0F0BCBB46B246A8
:1034C000A946A046F0BD0D00EAE72A0053469A43FC
:1034D00090688442D6D1062010561300002809DADD
:1034E0000D0031E04A462C4B1A60D9E706201856E9
:1034F000002822DB42001118890074188A46A1684E
:103500009960E179D971062161569971002925DB0D
:10351000A488F11A6405241554440919E024090506
:10352000490D24022143998013181D4A9B001178EC
:10353000F31899711070ABE713005946002914D1A4
:10354000FF3191711749918015490A789A71164A8D
:103550009B1B5B415A43120D0A7099E71349E2E73E
:103560000620105613000028C4DA114A1149D21A55
:10357000083A5002400D014399800F4952080A430E
:10358000DA8085E7240100D000ED00E0CD010010D5
:10359000A401002000E100E080E100E080E200E022
:1035A000B361022001BDFFFFAAAA000001BD000017
:1035B000DE01002000F0FFFF00F8FFFF70B5EFF321
:1035C000058101240443EFF3108C72B6214A13687D
:1035D000002BFCD0BFF35F8F1F4B05001F4AED1A75
:1035E0006D416A43120D1E4D8900AE6852B2765885
:1035F000A6421CD00621595691421CD01221595680
:10360000914222D01E215956914220D02A2159564A
:103610000324914210D0134B19781A708171BFF3B3
:103620005F8F00220B4B1A608CF3108870BDAB6863
:103630000D4C5C50EFE700246100091989005B180C
:10364000FF21997109499980E5E70124F4E70224F3
:10365000F2E7C046240100D0A4010020AAAA00007D
:1036600000ED00E0B3610220CD01001001BDFFFFBD
:10367000054B064A1360064A136053609360D3609B
:1036800013615361936170478080808000E400E0A3
:1036900004E400E0024B9C466144890001607047ED
:1036A0004000003410B50400FFF74AFE010020007E
:1036B000FFF7F0FFFF232371BFF35F8F10BDC046FC
:1036C00010B50400FFF73CFE01002000FFF7E2FF09
:1036D000FF23A380BFF35F8F10BDC04683680B48F4
:1036E00010B58446614462441201090159189B18BF
:1036F0005C684A680120944201D802D00020C0B220
:1037000010BD1A680B689A42F9D8F7E7FFFFFF0F60
:103710000A4B1968EFF3108072B60A68002AFCD0D1
:10372000BFF35F8F1B68BFF35F8F00221A6080F3C7
:10373000108840BF002000217047C046C808002004
:10374000F8B5574645464E46DE46E0B598460CABC2
:103750001C780DAB1B78070091469A460568002C33
:103760005AD1AC7B002C3BD0660029683619033E49
:1037700089194B78AB73002B00D1EB7300238B704E
:103780004B700B702B4BE218BB6812019B184A461A
:103790001A6042465A600A9A9A600B9ADA600023CD
:1037A0008B704B700B706B7B9B46002B27D02200DD
:1037B0006B685946A86898475B465B005B442A687B
:1037C000033B002812D058469619B070D118D35C2C
:1037D000002B00D073705B460C706B735C450FD090
:1037E000F0BCBB46B246A946A046F8BDD3189C70B3
:1037F0009119925D002A00D05A705B460B706C7371
:103800004A464346387D00F03FFB051E0AD10E9B19
:10381000002BE5D01D70E3E7660029683619033EEA
:103820008919AFE75346002BF1D12100386800F029
:1038300043FDECE7FFFFFF0FF0B5DE4657464E466F
:1038400045460023E0B58BB00893684B8200D458FE
:1038500000239B46099000F093FA02000B00606879
:10386000EFF3108A72B6564601680029FCD0B246C2
:10387000BFF35F8F21684F7B8C46002F2ED0A56849
:103880005B49A9467918090189444946086849688D
:1038900005000E00AD1A9E41002E5FDD02000B00F8
:1038A000099800F0F1FA00230022994600230692BD
:1038B0000793002398466368BFF35F8F5A461A60E8
:1038C0008AF310884346002B12D10028C3D10BB0D5
:1038D000F0BCBB46B246A946A046F0BD002300227C
:1038E0009946002306920793002300209846E2E7BA
:1038F000089B494618023843C047626805000E001D
:10390000EFF3108A72B61368002BFCD0BFF35F8F01
:10391000002E41DB2B00334302D02369002B56D10C
:103920002368D97B002905D01A684800411852182D
:10393000033A57709A7B002A00D19F73DF73E268C5
:10394000013FD35D0133D3555B4623616368BFF309
:103950005F8F5A461A608AF310887CE7002E02D1E6
:10396000002D00D09AE70021604600F023FC4B4672
:103970001A685B68069207934B469B6898464B46CD
:10398000DB689946E368DB19013B1B7808931B024F
:103990000343236100208EE72369002BC0D0069AE1
:1039A000079B8021521BB34109068B4202D301229F
:1039B000104B52420021049101310391494601917B
:1039C0004146200002970091FFF7BAFEBCE700F0E5
:1039D000D7F92A00330012184B41802109068B4287
:1039E000E8D30122034B5242E4E7C0468807002097
:1039F000FFFFFF0FFFFFFF7F10B5144C6368002B24
:103A000004D00A211248FFF745FE10BD2300114AD9
:103A10001021206800F0EAFA032000F0A5F9032045
:103A200000F09AFA03200C4900F0E8F9FFF788FC4F
:103A30000A4B9C4603232375D0231B061B68604456
:103A40006375074B80006060DC60DAE7EC01002002
:103A5000C8080020DD36001039380010400000345E
:103A600088070020F0B557464E464546DE46E0B58D
:103A700085B0019310AB1B780600039300239A4690
:103A8000984600927268EFF3108B72B61368002BA1
:103A9000FCD0BFF35F8F3568AC7B002C00D16EE0AB
:103AA00067002B683F19033FDB195A78AA73002A75
:103AB00000D1EA73484AA118B26809015218009867
:103AC0000199106051600E9991600F99D160424642
:103AD0009A705A701A706B7B9946002B00D16BE07C
:103AE00022006B684946A86898474B465B004B44E8
:103AF0002A68033B002856D04846D719B870D11819
:103B0000D35C002B00D07B704B460C706B734C4524
:103B100053D0F3681B19013B18787368BFF35F8FAC
:103B200042461A608BF310885346002B08D10002DE
:103B3000204305B0F0BCBB46B246A946A046F0BD46
:103B4000039B002B46D00E9B00200F999847030043
:103B50000B433FD004000D1E1ADA009A019B121B82
:103B6000AB410092019380221206934204D30123B9
:103B70001A4C5B4200930194039B9A4682E7736858
:103B8000BFF35F8F1C608BF3108801204042D0E7A9
:103B900000F0F6F8802200196941120600900191A8
:103BA0009142E9D3E3E7D3189C70D119D25D002A82
:103BB00000D05A704B460B706C73307D009A019B9D
:103BC00000F062F982460028A3D02100306800F09E
:103BD00073FB9EE70020ACE7FFFFFF0FFFFFFF7FB7
:103BE000F0B5EFF30583CE46474680B505000C00DF
:103BF00085B0002B12D02A4A0020536AA34203D377
:103C0000926A0130AA4204D305B0C0BCB946B0469E
:103C1000F0BD1B1B5A1E9341D8B2F5E7214E02930B
:103C20000193214B0200009330000B00FFF71AFFB5
:103C3000031EE0DD20BF7168EFF3108772B60A68DB
:103C4000002AFCD0BFF35F8FDAB29446FF223068BF
:103C50001A40417B61450FD0016889465100884672
:103C600049469044414403398978002904D1326996
:103C7000934209D1316107E0F1681B0A8A18013AC1
:103C80001278DBB29A4207D07368BFF35F8F0022CD
:103C90001A6087F31088AEE7614600F00DFBF3E78A
:103CA00000400540EC01002011370010F0B5EFF3A3
:103CB0000582D6464F4646461000C0B51038EFF391
:103CC000108872B6214C2368002BFCD0BFF35F8FA5
:103CD0000123190081401E4D1F006963AA461D4D36
:103CE00029601D4D2E78AC463500C5402F402B4233
:103CF00015D053465F6A194B8500EB589F4218D385
:103D00006246174B8E43EB581670BFF35F8F00224D
:103D1000226088F31088002B06D0984704E0BFF398
:103D20005F8F276088F31088E0BCBA46B146A8468A
:103D3000F0BD0C4B92009C46624413681360BFF3C5
:103D40005F8F0023236088F31088EDE7280100D0FF
:103D5000004005403C700540BB6102205009002036
:103D6000F0050020D03F054010B5034B01001800BE
:103D7000024AFFF7B5FA10BDB26102209486001026
:103D8000034B596A0A00986A596A8A42FAD1704705
:103D90000040054070B504000D00174A536A190031
:103DA000966A536A8B42FAD13000190024184D41AB
:103DB000AB4216D813D0104B2A005B6A9D4203D940
:103DC0000D494B6A9342FCD3934207D10A4A02E061
:103DD000516A994202D1916AA142F9D370BDA642BB
:103DE000E9D9054B5B6A1C005A1CEFD00122012463
:103DF0006442E5175242E3E70040054070B5040015
:103E00000D00EFF3108672B61A4A1368002BFCD02F
:103E1000BFF35F8F002D1BD02000FFF7BBFA1649C0
:103E200081420AD02000FFF7BDFA01212000FFF7F0
:103E300093FA0123A340114A1360114BA400E550EB
:103E4000BFF35F8F00220B4B1A6086F3108870BDA2
:103E50000121A1400A4BA200D5500A4B20001A783C
:103E60008A4305491A70FFF7C7FA00212000FFF7BF
:103E700073FAE5E7280100D0AD3C0010386005403A
:103E8000F0050020BB610220F0B54F46D6464646FD
:103E9000C0B507002B4C616A0D00A66A616AA94291
:103EA000FAD18B4208D805D00120E0BCBA46B14611
:103EB000A846F0BDB242F7D9EFF3108A72B6224895
:103EC00001680029FCD0BFF35F8F0125BD401F4969
:103ED0001C4C8846097889462943C9B28C4641461C
:103EE00060460870391D890065630A511849B80099
:103EF0004350216A0020294219D0616A0800A66A4D
:103F0000616A8142FAD18B4219D801D1B24216D8E6
:103F1000CC450BD00B4B1F221D625D6301233A4041
:103F200093400C4A136043464A461A700120BFF37F
:103F30005F8F0022044B1A608AF31088B5E70020D7
:103F4000F5E7C04600400540280100D0BB610220D3
:103F50005009002080E200E0EFF3108C72B60A49AD
:103F60000B68002BFCD0BFF35F8F01238340074A0F
:103F70000748136202789A430270BFF35F8F0023F1
:103F80000B608CF310887047280100D0004005407A
:103F9000BB61022070B506000D00140000291DD081
:103FA000002A12D073688068984762006B0012196B
:103FB0005B193168033A033B002808D08A189570D2
:103FC000C818CB5C002B0BD10470280070BDCB1837
:103FD0009C7088188A5C002A05D105702000F5E7DE
:103FE00053700470F1E75A700570F7E710B58360FD
:103FF0000023CCB243730133426004738373C473F0
:104000000068421C012C05D90133DBB21370033266
:104010009C42F9D1FF230B405A00D318C01800234B
:104020000338437010BDC04670B505000C1E07D0A4
:10403000630001681B19033BCB185A78002A01D191
:10404000200070BD500080180338091800204E78F9
:104050004870210058702800FFF79CFF31000400D1
:104060002800FFF7E1FF0600002C20D00028E7D051
:10407000320021006B68A8689847720063009219AB
:104080001B192968033A033B002808D08A1894704A
:10409000C818CB5C002B00D053700670D0E7CB184B
:1040A0009E7088188A5C002A00D05A700470340010
:1040B000C6E7C046F0B557464546DE464E46E0B533
:1040C0000D006F0001687F19033F0400C85D83B0D5
:1040D0000192CA19002850D043001B18033BCB188B
:1040E0005E78B446002E1AD1019E002E42D0E67BA7
:1040F000002E04D073009B19CB18033B5D70A37B8B
:10410000002B00D1A573E57300282FD10023537035
:1041100003B0F0BCBB46B246A946A046F0BD720053
:104120006244033A8A1851788846002151708946C2
:104130005970320001002000FFF72CFF43468246F1
:10414000002B07D05B0021684344033BCB185A780F
:10415000002A16D1424651462000FFF71BFF216876
:10416000019BCA19002BC2D10028CFD043001B18D5
:10417000033BCB1800219970C8E7019B002BB6D1F7
:10418000C4E7500080180338091848788346484629
:104190004870587041462000FFF7FCFE59468046A3
:1041A0002000FFF741FF414602002000FFF7F2FE2A
:1041B0008046CFE7F0B557464546DE464E46E0B569
:1041C00083B00191457B04006F0000687F19033FB5
:1041D000C15DC219002952D04B005B18033BC318C4
:1041E0005E78B446002E1CD1019E002E44D0E67BA2
:1041F000002E04D073009B19C318033B5D70A37B92
:10420000002B00D1A573E573002931D100232800CC
:104210005370617303B0F0BCBB46B246A946A046DA
:10422000F0BD72006244033A821850788046002044
:1042300050708146587032002000FFF7ABFE4346B5
:104240008246002B07D05B0021684344033BCB1818
:104250005A78002A17D1424651462000FFF79AFEAD
:10426000019B01002068C219002BC0D10029CDD0CC
:104270004B005B18033BC31800209870C6E7019BF6
:10428000002BB4D1C2E750008018033809184878D1
:10429000834648464870587041462000FFF77AFE32
:1042A000594680462000FFF7BFFE4146020020002D
:1042B000FFF770FE8046CEE770B5050000292CD0D0
:1042C000437B8B422ED04C0000686418033C0419D9
:1042D000A278002A21D053009B18033BC25CC61869
:1042E0008A4202D11BE0002A08D053009B18033BEE
:1042F000C3185A788A42F6D162785A700023012294
:104300002800A3706370FFF7D5FE697B02002800C8
:10431000FFF740FE6873012000E0002070BD637865
:104320003370EBE701221900FFF7C4FEF2E7C04645
:10433000F8B5CE464746040080B506200E0000F0D2
:104340001FFA051E51D0524B5249E21853425A41AE
:104350008023DB039C4692054F4B62441A604F4B0F
:104360001A6010008B689843FBD1494B4C4AE31804
:1043700059424B4180215B0049000620995200F0D0
:10438000FFF93100C00001F011FFC30932D1402212
:10439000012190466162A362256BEB0736D42700AA
:1043A0008026E36A00232C3776013E4333600620E3
:1043B000256300F0E5F94146800001F0F7FE236B2C
:1043C00005009846DB073BD46023E26A5A400E336F
:1043D0001340336043462363802310229B013B43F9
:1043E0001A60304B23630323A3642800C0BCB94682
:1043F000B046F8BD2C4A93423FD900232B492C4AA2
:104400006162A362256B9046EB07C8D52200C023EA
:1044100030329B011343234A06201A60666AA36A5E
:10442000B601F61800F0ACF9224901F0BFFEB60261
:104430000100300001F0BAFE0021FFF7ABFCAEE74F
:104440002200C02330329B011343164A06201A6013
:10445000636AA26A9B019946914400F091F94B4628
:1044600014499B02994601F0A1FE0100484601F063
:104470009DFE0021FFF78EFCA6E77F22990188466A
:1044800002400132520819009044130082E7C046EE
:104490000080FCBF00C0004000E0004000F0004091
:1044A0007809002001030000FEFF0000FFFF00006C
:1044B000C0FF3F004E0E000010B50C2082B000F08F
:1044C000B5F9FEF7EFFE002810D08B4B8B488B49D7
:1044D0008B4A186059609860D96018615961986179
:1044E000D961186259625A6202B010BD854CA0674A
:1044F00000F0A4F90122844B1A60636C012BFCD1FB
:104500000322824B1A607F4A936B012BFCD101334B
:1045100001217F4A7F480093043300F037F90523D7
:104520007D4A009301217D4800F030F97C4B5A68A8
:10453000FF2A02D8802252005A608022734B6E4CB0
:1045400012011A602169002907D0606901F02EFE6E
:10455000013043001B18033BFDD2E022704B714831
:1045600019680A40026002221968514001320A406B
:10457000042102609A681142FCD080216A4A090134
:104580001160802252005A60684B2361684B596861
:10459000FF2900D85A60032201215B4B1A60644A4C
:1045A00093681942FCD0E02310680340614803601F
:1045B000126803234A40022113405D4A0360936856
:1045C0001942FCD080215C4B0901196080215B4BB2
:1045D0004900516063615A4B5A68FF2A00D85960FC
:1045E0008022584B12011A60E169002907D06069E6
:1045F00001F0DCFD013043001B18033BFDD2E0233A
:104600004F4A11680B4050490B6080214F4B090104
:1046100019608021394B49005160E3614C4B5A6865
:10462000FF2A00D8596080224A4B12011A60216A81
:10463000002907D0606901F0B9FD013043001B1863
:10464000033BFDD2E023424A11680B4042490B6014
:104650008021424B0901196080235B005360802256
:10466000264BD20223623E4B5968914200D25A60D7
:1046700080223C4B12011A60616A002907D06069F0
:1046800001F094FD013043001B18033BFDD2E023F1
:10469000334A11680B4034490B608021334B0901C8
:1046A00019608023DB025360154B6362304B5A68FC
:1046B000FF2A02D8802252005A6080222D4B12011C
:1046C0001A60A169002907D0606901F06FFD01300F
:1046D00043001B18033BFDD2E023254A11680B4021
:1046E00025490B608021254B0901196080235B005F
:1046F0005360124BA361F7E6A0020020006CDC02BD
:104700001BB70000008000403CB0004030B00040CB
:10471000002F685900800240008C864700C002408C
:10472000308000403090004030A00040001BB700B7
:104730003C8000403C9000403CA000404059730742
:104740005480004054B000405490004054A00040B9
:104750006080004060B000406090004060A0004079
:104760006C8000406CB000406C9000406CA0004039
:104770004880004048B000404890004048A00040B9
:10478000014B8000C0587047A0020020F8B504001B
:1047900021481D0017000E0001F008FD010038003F
:1047A00001F004FD069B29041B0319432368002B19
:1047B00020DB1A4B1A4DE21853425A4180235B0109
:1047C0009C461203174B62441A60174B1A6017007D
:1047D000AB689F43FBD1C022231D92011A432123C2
:1047E0002660A06013602368002BFCDA0823E160D8
:1047F0001360F8BD3F2322681340B342D9D1A368A8
:104800001B051B0D8342D4D1EE22E368D202134074
:104810008B42CED1EDE7C046001BB7000040FDBF84
:1048200000C0004000E0004000F000408023024A49
:104830009B000343D362704700800540AA23064AC9
:104840001B0113602F230549D360054B1960536882
:10485000002BFCDA7047C0460040024000B0FA006E
:10486000006002402B4B2C4A70B51A602B4A2C4B2F
:104870002C491A6014008B689C43FBD12A4D2B4EA7
:10488000B54208D2013E761BB60808CD98472300F2
:104890000134B342F9D1FFF70FFE254A204B1A60CD
:1048A000204A9368DB43DB01DD09002BF9D140226C
:1048B000204B214E214C9A675A671A67DA66B44238
:1048C00008D2236820000834002B1FD0FEF7F8FE22
:1048D000B442F6D31A4C1B4EC022B168200002F03D
:1048E000F9FDB460FEF71EFDFEF7C2FEFFF784F887
:1048F000154C164EB44208D2013E361BB60808CC01
:1049000098472B0001359E42F9D170BDFEF7CAFED3
:10491000D5E7C04600E00040BFCDFBFEFE7F3C0077
:1049200000F0004000C00040780200208802002013
:10493000FFFFFF0100F00140780200206802002024
:104940000000002000ED00E088020020900200201E
:1049500000BEFDE710B5FFF7FBFFC0460FB400B582
:10496000084883B002F052FE049B002B07D005A933
:104970001800019101F0A0FB034802F047FE01205E
:10498000FFF7E6FFB8860010C886001010B5014892
:10499000FFF7E4FFCC8600109A4200D2885470479B
:1049A0007047C046F8B557464546DE464E46E0B528
:1049B00098460A9B06009A460D9B0F0093461500E9
:1049C0009B0710D10B9B0C9A93420CD213005C46B0
:1049D0000B9A9D1A5D442200434601343900202081
:1049E000B047A542F7D10B9C6319002C09D01D00DC
:1049F00053462A1B013C185D39004346B047002C42
:104A0000F6D10D9B9B070ED55B46EC1A0C9BA3427F
:104A100009D999462A004346390020200134B0477D
:104A20000135A145F6D82800F0BCBB46B246A946E0
:104A3000A046F8BDF0B54F464646D646C0B584B050
:104A400098460EAB1B7894469946129B0D9C109F7E
:104A5000119E9A0724D4002E6AD1BC4220D2012292
:104A60001A409246202C00D1D2E00C9A551E3022DA
:104A700001E0202C30D001342A55A742F9D8524603
:104A8000002A0DD0B4420BD20C9A551E3022202C95
:104A900002D126E0202C63D001342A55B442F9D14A
:104AA000DA0634D55A0564D4002C5ED10F9A102A48
:104AB00000D197E0022A00D1A8E030220C9C22709D
:104AC00001244A46002A5ED15A0700D483E02B22F3
:104AD0000C9D2A5501341CE05246002A02D0202E9B
:104AE0003ED92024DA0614D55A0512D4202F00D13D
:104AF000A1E0202E3DD120261F2234000F9D102D35
:104B000000D18BE0022D52D030250C9FBD54202CBB
:104B1000D7D103930C9B62460093029643460194BF
:104B2000FFF740FF04B0E0BCBA46B146A846F0BD6E
:104B3000012215001D40AA461A4229D04A46002AE1
:104B400039D10C321A4236D1BC429BD2202C00D033
:104B50008BE710221A40202EC3D8002AA2D1D8E712
:104B60002024DA06D5D55A0503D4A74225D0B4426D
:104B700023D00F9A102A25D0022A14D0202CC8D076
:104B800022000134C0E72D220C9D2A550134C0E7D4
:104B9000BC4200D384E7202C00D066E710221A40E4
:104BA000002AE0D1B5E7202CB3D0220001346225E1
:104BB0000C9FBD54E2E7013EC6E7621E012C00D106
:104BC00074E79BE79A0616D4202CA2D078220C9D7D
:104BD0002A550134D2E71A079BD520220C9D2A556D
:104BE000013496E79A060FD478220C9C227030226A
:104BF0006270022465E7202C00D18AE758250C9AC0
:104C0000121915700134B9E75822EEE76222ECE779
:104C1000102255461A40002D9FD1C1E7023C9D0647
:104C200004D478250C9F3D551400A9E758250C9F06
:104C30003D551400A4E71F2260E7C04610B50028C8
:104C400000D110BD02F096FCFBE7C046F0B5574618
:104C50004E464546DE46E0B599B0824689469046C6
:104C60000893229A239B1000190001F06CFD002884
:104C700000D0CDE0229823990122D94B524201F075
:104C80005DFD002800D0C3E0229823990122D54B76
:104C9000524201F045FD002800D0B9E02298239946
:104CA0000022002301F03CFD002800D0F1E1229E0B
:104CB000239F8023269ADB001A400D92269A1A42DF
:104CC00001D1062324938023269A1B011A403B001E
:104CD00093460996334300D0B3E0002A00D0C2E1E6
:104CE000002300240A930B94002304250993259B99
:104CF0000024AB4200D95C1B0223269A1A400C9276
:104D0000269A134203D06B426B415B421C40099BC5
:104D1000002B07D00A9A0B9B3000390001F09FFC52
:104D200006000F00229823990022002301F0F8FCCE
:104D3000002803D0802109067B181F00269AAA4B61
:104D4000009601971340089E0493249B03940293BA
:104D5000424633004946504600F0AAF90400002DAF
:104D600067D02020269A4946024013005A425341F8
:104D70005B42621C18400A92330022004530D04743
:104D8000099A6F1ED317D4185C40D30F9B46002599
:104D900001E0202D13D008AA94461F23200063446D
:104DA0000A2101355E1901F001FA3031317020001D
:104DB0000A2101F0FBF926000400092EE9D8052399
:104DC0000693002304930A3303935B46089E0293E1
:104DD00010AB0A9A00934946330050460597019557
:104DE000FFF728FE0C9A0400002A22D04246851ABA
:104DF000259AAA421DD9B0465746160022004346BE
:104E0000494620200135B8470134AE42F6D810E0BB
:104E1000269B42460493259B49460393249B504678
:104E20000293229B239C00930194089B00F040F97D
:104E30000400200019B0F0BCBB46B246A946A0460B
:104E4000F0BD6A4B78009C46400D604401F08EFC3A
:104E5000674A684B01F021FC674A684B01F0F6FB9A
:104E6000674A3B031B0B1A4304000D00099811000D
:104E7000644B002201F0E1FB634A644B01F00DFC3E
:104E800002000B002000290001F0E0FB01F086FC8D
:104E9000099001F06BFC5E4A5E4B04000D0001F0CE
:104EA000FCFB00225C4B01F0D1FB01F077FC5B4A7C
:104EB0005B4B29000C90200001F0EFFB04000C98E4
:104EC0000D0001F053FC574A574B01F0E6FB02007E
:104ED0000B002000290001F0B0FB04000D000200CF
:104EE0000B000A940B9501F0D8FB04000D000A9802
:104EF0000B9902000B0001F0A9FB00220E900F910C
:104F00004A4B2000290001F0AAFB0022484B01F087
:104F10009DFB02000B002000290001F0A0FB0022F5
:104F2000444B01F093FB02000B002000290001F02C
:104F300096FB0A9A0B9B0D0080210400C9050020F6
:104F400001F07BFB02000B002000290001F07EFB3A
:104F500002000B000E980F9901F081FB0022284BF4
:104F600001F074FB344B0C9C9C46644423050022E6
:104F700001F093FB04000D0002000B00300039002B
:104F80000A940B9501F0CCFB00285DD123002A0088
:104F9000C625099963318D42AD4159466D420435AC
:104FA000002900D1A3E6134363D030003900234A1F
:104FB000234B01F0BBFB002807D000223000390052
:104FC000204B01F0ADFB002853D1249B002B00D1D6
:104FD0008DE60D9B5A1E9341249AD31A249386E69C
:104FE000FFFFEF7FFFFFEFFFFFF7FFFF01FCFFFF7A
:104FF000FB799F501344D33FB3C8608B288AC63FC8
:105000000000F03F0000F83F61436F63A787D23F85
:1050100071A379094F930A400000E03F1655B5BBD4
:10502000B16B0240EF39FAFE422EE63F00002C4001
:105030000000244000001840FF0300002D431CEB3B
:10504000E2361A3F80842E41099B0022013B0993DE
:105050002000164B290001F002FB0A0001000300AA
:105060000A910B9294E7002300240A930B940023E7
:105070000993249A099B9A4214DDD31A013B249385
:105080008023269ADB001A430023002526920993E9
:105090002DE6802212069446229B1E00239B634429
:1050A0001F0006E600232493EAE7C04600002440E0
:1050B000F0B54546DE464E465746E0B595B08B46C0
:1050C000904699461E9A1F9B0A9019001000209D39
:1050D00001F039FB002800D0B0E11E981F99012291
:1050E000C74B524201F01CFB002800D037E11E984C
:1050F0001F990122C34B524201F020FB002800D02F
:10510000A7E01E981F990022BF4B01F017FB002853
:1051100000D088E01E981F990022BC4B01F000FBD4
:10512000002800D07FE01E981F990022002301F084
:10513000F7FA002800D0FAE000230B938023229C8A
:10514000229ADB001C401A4200D102E1092D00D84E
:105150007EE106A98C462C00172200233021093C51
:1051600062440133D154EF1A202B00D132E1A34223
:10517000F7D10022A44B069207931E981F9901F0C5
:105180000DFB050001F0F2FA02000B001E981F99BA
:1051900001F053FA069A079B01F07FFA08900991F3
:1051A00001F020FB060001F0DDFA02000B00089878
:1051B000099901F042FA0022954B0890099101F0FB
:1051C000BDFA002800D1D2E00136300001F0CAFA61
:1051D000069A079B01F0AAFA002801D000260135A3
:1051E000AA46002F00D098E0280001F0BFFA020084
:1051F0000B001E981F9901F020FA854B0022060033
:105200000F0001F08DFA0CAB9A46002845D1002220
:10521000300039007E4B01F091FA00283DD1EB07B8
:105220003BD5013539E0229B42460493219B5946E8
:1052300003930A981E9B1F9C0295009301944B4672
:10524000FFF704FD15B0F0BCBB46B246A946A04628
:10525000F0BD229B5B0767D403226E4B229901921B
:10526000039121990291009342464B4659460A9870
:10527000FFF798FBE6E706AA944617232800634445
:105280000A2101341E1900F069FF30312800317005
:105290000A2100F063FF051E76D0202CEBD10323FA
:1052A000229A1340012B1DD1219B002B1AD00B9B5E
:1052B000002B00D0BBE0229A0C33134200D0B6E0A2
:1052C000219BA34200D887E006AB9C4617223023DF
:1052D000624404E02199013413558C4259D0202CAA
:1052E000F8D12024229B01940393219B02935346DF
:1052F000B9E706AA944617230A2163443000013413
:105300001D1900F053FF3031297030000A21013F90
:1053100000F04CFF092E46D90600202CE9D1554655
:105320000CAB20249A46B8E704223B4B96E71E9A22
:105330001F9B0020002101F080F901230B938023A3
:10534000229C229ADB001E901F911C401A4200D022
:10535000FCE60022314B0627069207930DE7229BBD
:105360000393219B0293042301932D4B7BE700229F
:1053700008980999264B01F0D3F9002800D02FE7AF
:10538000002E4FD101362BE70323229A1340012B25
:1053900068D0202CA6D00B9B002B1FD02D2352466B
:1053A000135501349EE75546202CB9D030223B19C5
:1053B000002F4BD0172006A9013409180A55202CBC
:1053C000AED09C42F6D10CAA92462E2251465C1CCD
:1053D000CA5462E72024CCE6202C83D0229B5B07B2
:1053E00008D4229B1B0700D47CE720235246135588
:1053F000013477E72B2352461355013472E7C04638
:10540000FFFFEFFFFFFFEF7F65CDCD4165CDCDC144
:105410000000E03FE0860010D886001080842E4116
:10542000E8860010F30700D4DAE60136D8E6219BBF
:10543000013B2193A34200D946E7AAE7229B0393AD
:10544000219B029303230193084B0CE72300BAE747
:10545000074BEA009B185C681B682F0006930794B3
:1054600000248AE6219B002B93D020E7E4860010DD
:1054700090880010F0B54546DE4657464E46E0B5EA
:10548000A1B01D002A9B90460B93D04AD04B834677
:105490008A461A60002900D1A4E1002328789946A1
:1054A000002800D1A6E1CB4B5E460993CA4B4C467F
:1054B000D34647460D930AE0631C984622003B0002
:1054C0005946B04744462878002800D1CDE0013540
:1054D0002528F1D108239A46043B9946023B984679
:1054E000013B00229C460C942878691C0300203B59
:1054F000DBB2102B03D8099C9B00E3589F460300A6
:10550000303B0C9C0A92092B7FD9002398462A280D
:1055100000D1C1E000239A462E2800D190E003007C
:10552000683BDBB2122B1ED8AC4A9B00D3589F4677
:1055300063460D001A43D7E743460D001A43D3E7ED
:105540004B460D001A43CFE710230D001A43CBE75B
:1055500053460D001A43C7E780235B000A9A687818
:105560001A430A9201310D0067280AD82428A3D9CA
:105570000300253BDBB2422B9ED80D9A9B00D358EB
:105580009F4601006939C9B20F2995D801238B4084
:105590009C46934B994663464A4613400C93624699
:1055A0004B461A4200D05EE20A2900D124E10729C5
:1055B00082D10B9B02CB9846002900D19BE1212090
:1055C0000A9A0243914610AB9C461F220F23404685
:1055D00062440B959C46A04615000C9B0A9002E085
:1055E000202B0CD0110064460C4020003730092CD1
:1055F00000D807380133E8540A090F29F0D80C9372
:105600000A9B44460B9D984685E1002398460A9BD9
:1056100045469C4600E00131AB005B195B001D185C
:105620000878303D0300303B092BF4D963460A93D8
:105630000023A8469A460D0001312E2800D06EE7BF
:1056400080200A9AC00002430A92302252429446B5
:1056500068780B0084446246092A00D82EE12A2883
:1056600000D13DE10D00013159E7DA46A146B346CC
:10567000B846C84503D801235B4243449946434694
:105680004A4651460020D847200021B0F0BCBB4616
:10569000B246A946A046F0BD0B9B04CB9046002A1B
:1056A00004DB68780B930D00013133E70A9A283840
:1056B00002430A9242465242687890460D000B938C
:1056C000013127E7672800D1C7E1472800D114E25C
:1056D000452800D116E20A9A0721049242460B9B04
:1056E0000392073352468B43190002920CC93000D3
:1056F000009201930B9122003B005946FFF7A6FA56
:105700000400E0E680239B0028E76878682800D141
:105710001BE280230A9A01311A430A9223E7687830
:105720006C2800D109E280230A9A5B001A430A928E
:10573000013118E7462800D18AE10A9A072104922C
:1057400042460B9B0392073352468B431900029249
:105750000CC93000009201930B9122003B00594686
:10576000FFF7A6FC0400AEE6631C984622003B004F
:1057700059462520B0474446A5E60B9B04330C93BD
:10578000631C99460A9B9A0700D4E7E10B9B220011
:10579000187859463B00B04743464444012B00D893
:1057A000B8E22B00B84625005F464C4699462200D9
:1057B0004346013439002020B047AC42F7D12C00D9
:1057C000BB464D4647460C9B0B937CE67554001038
:1057D00044070020F08600108087001034870010F6
:1057E00041900000DC4B28789B4600239946002816
:1057F00000D058E600243CE70B9B02CB12930B78B9
:105800009C4618005346002B00D09CE0002812D084
:1058100002235B420133994689444A460B0089467C
:10582000110001E08B4203D05A780133002AF9D1EC
:1058300049465B1A0C938023DB0099460A9A134071
:105840000B934B461A4204D00C9B534501D9534647
:105850000C93022399460A9A13400A934B4613422B
:1058600000D1B5E16346002B00D197E10B9B002BE3
:1058700000D14CE1D1460B1B9A462B00A1444D466A
:105880002200B9465F469B4609E04B463900541C4E
:10589000B0475346185D002800D158E122009542D8
:1058A000F3D15B46BB464F46A9461D004C460A9BBA
:1058B000002B00D072E1129B0B9304E655460A9A26
:1058C000A9004919490001330D181878303D01002D
:1058D00030390929F4D9AA460A921D00591C1EE63E
:1058E0000B9BA87804CB0235D143C9170A409246D6
:1058F0000B93691C13E60A9B10211A008A431000BF
:1059000011310843814680201A00C0000240110076
:10591000034200D157E64B460822069353460592B0
:1059200008320392002204930C9B0292019318AB5D
:105930002200009359463B003000FFF77BF84346B6
:1059400004000B93BFE5002800D174E75346013BE8
:1059500060E7622800D1DFE1582800D1ECE10A9924
:1059600080230A00DB001A4010000A00194200D10F
:10597000BDE111239A430C920C9A802311009B00E5
:1059800019408C461A4200D046E1802311005B008A
:10599000194089460B9904310A911A4200D08FE2CE
:1059A00013005B0600D59EE113001B0600D426E31E
:1059B0000B9B00229B5ED9175A184A4092B2D90F0E
:1059C0000B91002B00D177E2100010AA94464246BA
:1059D0001F23129252466344AA4614944D46040073
:1059E000B946B0461F00139201E0202D0FD02000D1
:1059F0000A2100F0DBFB01357E19303131702000C7
:105A00000A2100F0D3FB26000400092EEDD8129BDA
:105A100046469846139B4F46A94655469A46149CBF
:105A20000C9B069343460593534604930A23039322
:105A30000B9B02934B46019318AB220000935946EF
:105A40003B003000FEF7F6FF0A9B04000B933AE59B
:105A500020230A9A1A430A926FE680230A9A1B01AE
:105A60001A430A9237E6782800D0AFE10A988023DB
:105A70000200DB001A4011000200184200D1D0E2FF
:105A80000D239A43100003330A93802302009B00E6
:105A90001A409446184200D0ACE1802302005B001B
:105AA0001A4091460B9A04320C92184200D04AE2F6
:105AB000430600D493E20B9B1B780893002B00D085
:105AC0004BE110339843002900D146E10023994669
:105AD00043460593534604930A9B06900393002381
